:100000000C9468010C9499010C9499010C94990139
:100010000C9499010C9499010C9499010C949901F8
:100020000C9499010C9499010C9499010C949901E8
:100030000C9499010C9499010C9499010C949901D8
:100040000C9499010C9499010C9499010C949901C8
:100050000C9499010C9499010C9499010C941E0D27
:100060000C9499010C94920D0C94680D0C949901C8
:100070000C9499010C9499010C9499010C94990198
:100080000C9499010C9499010C9499010C94990188
:100090000C9499010C9499010C9499010C94990178
:1000A0000C9499010C9499010C9499010C94990168
:1000B0000C9499010C9499010C9499010C94990158
:1000C0000C9499010C9499010C9499010C94990148
:1000D0000C9499010C9499010C9499010C94990138
:1000E0000C949901160E190E080E0C0E100E500EDF
:1000F0001D0E210E270E2B0E2F0E350E390E3D0E26
:10010000500E430E470E4B0E0C943D0E0C94AD0C4E
:100110000C94F8010C94210E0C94430E0C94270EB1
:100120000C940C0E0C9406050C94D2010C946E06E3
:100130000C94F5010C94AB0B0C94EE010C94100E86
:100140000C942F0E0C9469050C94BC010C94720B4A
:100150000C94CD0B0C941D0E0C94CD070C94160E24
:100160000C9495080C944C130C94B8050C943A0715
:100170000C94390E0C94AF0C0C9425050C94EF05DF
:100180000C942B0E0C94BB010C94470E0C944B0E4C
:100190000C94AA050C94DA010C94DE010C94190E4F
:1001A0000C94500E0C94050C0C94350E0C94520CBF
:1001B0000C947D070C94BF0B0C94D6010C949C0BF3
:1001C0000C94F7010C94080E00000A0B02090C0DA8
:1001D0000E080703040100000000000000000000FA
:1001E000000000000000000000000000000000000F
:1001F00000000000121110000000000000000000CC
:1002000000000000000000000000000000000000EE
:100210002200250028002B002E00310034000201AE
:100220000000050108010B01000021002400270047
:100230002A002D00300033000101000004010701F5
:100240000A0105050505070508080808020202025B
:100250000A0A080804040404010101010101010162
:100260000303030303030303040707070C0C0C0C2D
:100270000C0C0C0C02020202060606060606060616
:100280000B0B0B0B0B0B0B0B0102102020080810A3
:1002900020401020408002010201080402010102F6
:1002A00004081020408080402010080402018004CF
:1002B000020180402010080402010804020101022A
:1002C00004081020408001020408102040804C13D4
:1002D00011241FBECFEFD1E2DEBFCDBF00E00CBFC7
:1002E00013E0A0E0B2E0E6E5F8E200E00BBF02C0F8
:1002F00007900D92A835B107D9F724E0A8E5B3E03F
:1003000001C01D92A83CB207E1F711E0C8E6D1E0B8
:1003100000E006C021970109802FFE010E941514FC
:10032000C736D10780E00807A9F70E94E1110C94B5
:1003300029140C940000E0915903F0915A03908124
:100340008091580380958923808308958EBD000095
:100350000DB407FEFDCF8EB508952091C60390E041
:10036000233311F40C9601C04896982F990F990FDA
:10037000990F80E008950895CF93DF931F92CDB732
:10038000DEB76983DC01ED91FC910280F381E02D01
:1003900041E050E0BE016F5F7F4F19950F90DF91F4
:1003A000CF910895FC01818D928D0895FC01848583
:1003B00095850895FC0184899589089529E932E09D
:1003C000FC0131832083FB01408951896289738953
:1003D000FC0142835383648375830895DC01ED91AE
:1003E000FC91048CF58DE02D199480E0089508951A
:1003F00080E090E00895E0915903F0915A039081D4
:1004000080915803892B80830895AF92BF92CF9239
:10041000DF92EF92FF920F931F93CF93DF9300D061
:100420001F92CDB7DEB78C016B017A018091C603B4
:100430008333F1F45B016801C40ED51E0C151D0554
:1004400009F460C00E949B018FE00E94A601812FE9
:100450000E94A601802F0E94A6010F5F1F4F80E01F
:100460000E94A601F50181935F010E94FB01E6CF86
:100470008433F1F40E949B0119830A838F2D8F77B7
:100480008B83EC8264E070E0CE0101960E943A0F0B
:10049000A70160E070E0C6010E942214E114F1049B
:1004A00021F0B701C6010E943A0F0E94FB012AC049
:1004B0000E949B010F3F110509F020F419820A8365
:1004C0001B821DC017FD0BC019820A8333E01695ED
:1004D00007953A95E1F7007E08600B8310C0C801CC
:1004E00026E0969587952A95E1F719830A83807E01
:1004F0000115104C10F4806101C088618B8363E0AA
:1005000070E0C2CFC7010F900F900F900F90DF9156
:10051000CF911F910F91FF90EF90DF90CF90BF9000
:10052000AF900895AF92BF92CF92DF92EF92FF9279
:100530000F931F93CF93DF93CDB7DEB728970FB6F6
:10054000F894DEBF0FBECDBF8C017B016A018091A4
:10055000C6038333E1F45801A40EB51E0A151B052A
:1005600009F48BC00E949B0180EF0E94A601812F9D
:100570000E94A601802F0E94A6010F5F1F4FF70166
:1005800081917F010E94A6010E94FB01E7CF843385
:1005900021F50E949B0119830A838D2D80688B832E
:1005A000CC8264E070E0CE0101960E943A0F870190
:1005B0000C0D1D1DE016F10669F0F70181917F0118
:1005C0000E94A601F7CFB6016D5F7F4FCE01019665
:1005D0000E943A0F0E94FB0150C00E949B010F3FF6
:1005E000110509F020F419820A8384E01CC017FD6C
:1005F0000BC019820A8333E0169507953A95E1F707
:10060000007E0C600B8310C0C80126E0969587958C
:100610002A95E1F719830A83807E0115104C10F4A6
:10062000846101C08C618B8326E0C216D10498F4EA
:1006300020E0822F90E08C159D0528F6E4E0F0E0A4
:10064000EC0FFD1FE80FF91FD701A80FB91F8C9100
:1006500080832F5FEECF63E070E0CE0101960E94B1
:100660003A0F87010C0D1D1DF70181917F010E943A
:10067000A601E016F106C1F7ADCFC60128960FB668
:10068000F894DEBF0FBECDBFDF91CF911F910F91C8
:10069000FF90EF90DF90CF90BF90AF900895CF93F1
:1006A000DF931F92CDB7DEB7898341E050E0BE01F2
:1006B0006F5F7F4F80E090E00E9492020F90DF9189
:1006C000CF910895DA0190915B03E92FF0E0FE2FBE
:1006D000EE27E60FF71F90E0982F8827A901BD01AC
:1006E0008E0F9F1F0C949202CF93DF931F921F9245
:1006F000CDB7DEB779836A8322E030E0AE014F5F89
:100700005F4F64E070E00E9462030F900F90DF91F2
:10071000CF910895DA0190915B03E92FF0E0FE2F6D
:10072000EE27E60FF71F90E0982F8827A901BD015B
:100730008E0F9F1F0C940502FF920F931F93CF9370
:10074000DF931F921F92CDB7DEB7F82E22E030E084
:10075000AE014F5F5F4F66E270E00E948A0309813D
:100760001A8110270127102722E030E0AE014F5FE9
:100770005F4F66E270E08F2D0E948A0389819A8123
:100780009827892798270817190711F08C01ECCFB3
:10079000C8010F900F90DF91CF911F910F91FF90A3
:1007A0000895CF93DF931F92CDB7DEB790915B038F
:1007B000292F30E0322F2227260F371F90E0982F65
:1007C0008827498341E050E0BE016F5F7F4F820F71
:1007D000931F0E9492020F90DF91CF910895CF93C3
:1007E000DF931F92CDB7DEB741E050E0BE016F5FEF
:1007F0007F4F0E94050289810F90DF91CF9108956C
:1008000080E090E00C94EF03CF93DF9380E80E94A8
:100810004F03C4E1D0E00E940004882351F061E05E
:1008200070E080E090E00E94A7112197A1F780E09E
:1008300001C081E0DF91CF91089590915B03292F52
:1008400030E0322F2227260F371F90E0982F88277D
:10085000820F931F0C94EF0308958CBD9DBD0895E6
:100860004F925F927F928F929F92AF92BF92CF9260
:10087000DF92EF92FF920F931F93CF93DF931F921C
:100880001F92CDB7DEB7782E6B014A01A82EB12C8E
:1008900027E0829FC0011124AC0142585C4F7A01CD
:1008A000FA0100811181CE0101960E94640F8981B5
:1008B0009A810E942D040815190554F4872D0E9471
:1008C0009C03F70126818C01021B1109118300830F
:1008D00001151105A9F463E070E0872D0E941D0445
:1008E000843109F480C0882309F47DC001E010E060
:1008F0008C3111F400E010E011950195110973C0DD
:10090000801691060CF4840187E08A9DF0018B9D8E
:10091000F00D1124E258FC4FE280F380C114D104A1
:1009200059F12701F7E05F22872D0E94AD01840D68
:10093000951D2091C603273319F4A801B6011AC0EA
:100940009801240D351D21303840B8F320E038E0FF
:10095000490184189508A401B6010E9405022601E8
:10096000480C591C6801C818D908872D0E94AD0190
:10097000A601B2010E940502E00EF11E87E08A9DE9
:10098000F0018B9DF00D1124E258FC4FF382E282BE
:1009900080819181801B910B918380832681A801A6
:1009A000420F511D4A3F510510F4892BD9F487E0BD
:1009B0008A9DF0018B9DF00D1124E258FC4F1682A8
:1009C000F982EA8222E030E0AE014F5F5F4F68E2D9
:1009D00070E0872D0E94620360E470E0872D0E9422
:1009E000540F01C04683C8010F900F90DF91CF9143
:1009F0001F910F91FF90EF90DF90CF90BF90AF903D
:100A00009F908F907F905F904F900895CF93DF934A
:100A1000FC01218D328D2115310519F48FEF9FEFE7
:100A200011C0EC014217530708F0A901888D0E94FC
:100A300030041816190694F7298D3A8D281B390BA6
:100A40003A8F298FDF91CF9108950F931F93CF9302
:100A5000DF931F92CDB7DEB7FC01218D328D232BA2
:100A600061F08C0141E050E0BE016F5F7F4F808DEF
:100A70000E943004181619061CF08FEF9FEF08C073
:100A8000F801818D928D0197928F818F898190E0FD
:100A90000F90DF91CF911F910F9108951F93CF93E6
:100AA000DF931F921F92CDB7DEB7182FCE010196AC
:100AB0000E94640F89819A810E942D0460E170E098
:100AC000812F0E94540F0F900F90DF91CF911F91B3
:100AD0000895CF92DF92EF92FF920F931F93CF93DF
:100AE000DF9300D000D0CDB7DEB78C016B017A0167
:100AF000FC01808D883010F40E944E0589E992E057
:100B00009A838983F60182819381A481B5818B8345
:100B10009C83AD83BE83B701CE0101960E94341041
:100B2000F801808F883030F4F586E486128E118EBD
:100B300081E001C080E026960FB6F894DEBF0FBEBC
:100B4000CDBFDF91CF911F910F91FF90EF90DF907C
:100B5000CF900895CF93DF93FC01808D883028F4E7
:100B6000EF010E944E0588E0888FDF91CF910895B4
:100B70001F93CF93DF931F921F92CDB7DEB7FC0177
:100B8000108D183020F5818D928D892B01F1CE01C9
:100B900001960E94640F89819A810E942D04812F01
:100BA0000E94AD0127E0129FF0011124E258FC4F92
:100BB00022813381377041E050E0BE016F5F7F4F8B
:100BC000820F931F0E940502898190E002C08FEF7F
:100BD0009FEF0F900F90DF91CF911F910895DF92BB
:100BE000EF92FF920F931F93CF93DF93CDB7DEB7B2
:100BF00028970FB6F894DEBF0FBECDBF8C01D80189
:100C000059964D915C915A974115510551F0ED91CE
:100C1000FC91048CF58DE02D60E070E0C801199521
:100C2000EECFF801D08CF7E0DF9EC00111249C01CB
:100C300022583C4F7901D9018D919C91892B49F122
:100C400048E050E0BE016F5F7F4FF801808D0E9449
:100C5000300418161906A4F5D801509684E0FE0158
:100C6000319601900D928A95E1F78D8190E0982F51
:100C700088272E81820F911DF801958B848B8F819F
:100C800090E0982F88272885820F911D928F818F61
:100C900017C0CE0101960E94640F89819A810E943B
:100CA0002D048D2D0E949C03D70116962C9116972A
:100CB000821B91098D939C93892B11F680E090E023
:100CC00028960FB6F894DEBF0FBECDBFDF91CF914F
:100CD0001F910F91FF90EF90DF9008952F923F9218
:100CE0005F926F927F928F929F92AF92BF92CF92BC
:100CF000DF92EF92FF920F931F93CF93DF931F9298
:100D00001F92CDB7DEB75C014B013A01FC0126888A
:100D10003788508CCE0101960E94640F89819A8198
:100D20000E942D0422E030E0AE014F5F5F4F60E291
:100D300070E0852D0E948A03C980DA80DC24CD24EE
:100D4000DC2422E030E0AE014F5F5F4F60E270E0F4
:100D5000852D0E948A0389819A819827892798275F
:100D6000C816D90611F06C01ECCF052D10E067E034
:100D7000569EF0011124E258FC4FD582C4827301C3
:100D8000C614D70408F4760122E030E0AE014F5FCC
:100D90005F4F64E270E0852D0E948A0369807A804B
:100DA000762467247624620C731C9301377040917B
:100DB000C603C801433311F4089601C04096982F2A
:100DC0008827990F990F990F820F931F473319F4B2
:100DD000A701B40120C0A9014E0D5F1D413058404C
:100DE000B8F360E078E06B01C21AD30AA601B4013F
:100DF0000E949202A7014C195D09B4016C0D7D1D82
:100E00008091C603833399F5085F1F4F902F990F88
:100E1000990F990F80E00E9492026E0C7F1C7982DC
:100E20006A8222E030E0AE014F5F5F4F64E270E023
:100E3000852D0E946203F501868997898E0D9F1D7D
:100E4000978B868BC7010F900F90DF91CF911F91E9
:100E50000F91FF90EF90DF90CF90BF90AF909F9059
:100E60008F907F906F905F903F902F900895005FDC
:100E70001F4FCCCF1F93CF93DF931F921F92CDB7FD
:100E8000DEB7FC01108DCE0101960E94640F8981AE
:100E90009A810E942D0460E270E0812F0E94540F1D
:100EA00062E070E0812F0E941D0484FD18C062E0A2
:100EB00070E0812F0E941D0483FF08C048E162E0BA
:100EC00070E0812F0E94D10380E010C0CE01019616
:100ED0000E94640F89819A810E942D04E1CF40E134
:100EE00062E070E0812F0E94D10381E090E00F90DA
:100EF0000F90DF91CF911F910895DF92EF92FF92B3
:100F00000F931F93CF93DF931F921F92CDB7DEB73E
:100F1000FB01DC0157961C921E92569722812111EB
:100F200009C02381211106C02481211103C025811C
:100F3000222339F14115510521F17A018F01FC017C
:100F4000D08CCE0101960E94640F89819A810E9403
:100F50002D04A8014E5F5F4F24E030E06CE070E0AC
:100F60008D2D0E946203F982EA8222E030E0AE0118
:100F70004F5F5F4F60E170E08D2D0E94620381E062
:100F800001C080E090E00F900F90DF91CF911F9112
:100F90000F91FF90EF90DF9008958F929F92AF9204
:100FA000BF92CF92DF92EF92FF920F931F93CF9356
:100FB000DF93CDB7DEB72A970FB6F894DEBF0FBE2A
:100FC000CDBF6C015B01FC01808D883010F40E9464
:100FD0004E058091C603811102C018E088C083339A
:100FE00011F008E001C004E0CE0101960E94640FF8
:100FF00089819A810E942D049E012F5F3F4F7901C4
:10100000490110E063E070E0812F0E941D04F401AB
:1010100081934F018823B9F01F5F0113F3CF10E0D4
:10102000F70181917F018D3149F0883139F08A5182
:10103000823020F01F5F0113F3CFCFCF60E170E06B
:10104000812F0E94540FE12EF12C83EE93E0019743
:10105000F1F742E060E070E0812F0E94D1034FEF92
:1010600062E070E0812F0E94D103A114B10411F05D
:10107000B50113C080910002909101020196811583
:10108000F0EC9F0710F480E090EC909301028093C5
:1010900000026091000270910102812F0E9474038E
:1010A00061E070E0812F0E94540F27E02E9DC00167
:1010B0002F9D900D11249C0122583C4F7901F9017C
:1010C0001182108222E030E0AE01475F5F4F68E29C
:1010D00070E0812F0E948A0389859A859827892745
:1010E0009827F70193838283168215821482F60172
:1010F000108F183030F4B586A486128E118E81E0E0
:1011000001C080E02A960FB6F894DEBF0FBECDBFB7
:10111000DF91CF911F910F91FF90EF90DF90CF90D3
:10112000BF90AF909F908F9008956F927F928F9213
:101130009F92AF92BF92CF92DF92EF92FF920F9366
:101140001F93CF93DF93CDB7DEB7EC970FB6F8942C
:10115000DEBF0FBECDBF4C017B013A0189E992E0B1
:101160009A8389831C861B8648EE53E060E070E01A
:101170004D875E876F87788B2FE632E03A87298725
:10118000988F8F8B198E1A8E1B8E1C8E28E029A3A8
:1011900099AB88AB1AAA1BAA1CAA1DAA80916D0440
:1011A00090916E04A0916F04B09170048EA39FA3E0
:1011B000A8A7B9A78B839C83AD83BE8318861F82A3
:1011C000F70120E080E090E06AE03191332319F1EB
:1011D00040ED430F4A3080F4689FA001699F500D95
:1011E0001124CA01C097830F911D37FD9A958F3F37
:1011F000910559F350F32BC03E3249F5233039F1B4
:10120000A2E3B0E0AC0FBD1FA20FB11D8C932F5F06
:1012100080E090E0DACF2330D1F48DABD401ED91B2
:10122000FC910488F589E02D89E992E09DA38CA3C7
:101230008AA99BA9ACA9BDA98EA39FA3A8A7B9A75A
:10124000A301BE016C5D7F4FC401199521C24B8182
:101250005C816D817E818091670490916804A0918A
:101260006904B0916A04481759076A077B0709F4B3
:101270000DC22FB7F89480915C0390915D03A0910B
:101280005E03B0915F032FBF8F709927BC017C5F15
:10129000CE0109960E94CD07813009F0F4C189E999
:1012A00092E09DA38CA38B819C81AD81BE818EA396
:1012B0009FA3A8A7B9A745E350E0BE016C5D7F4F8F
:1012C000CE0109960E947D07892B19F400E010E0F9
:1012D00083C12FB7F89480915C0390915D03A09136
:1012E0005E03B0915F032FBF98878F8342E050E089
:1012F000BE01695F7F4FCE0109960E946E0681E0B4
:1013000090E09DA38CA342E050E0BE016C5D7F4F56
:10131000CE0109960E946E0680E091E09DA38CA309
:1013200042E050E0BE016C5D7F4FCE0109960E9405
:101330006E061DA21CA242E050E0BE016C5D7F4F14
:10134000CE0109960E946E0642E050E0BE016C5D3F
:101350007F4FCE0109960E946E0642E050E0BE012A
:101360006C5D7F4FCE0109960E946E066701D70122
:101370008C91882311F186017801F70181915F0139
:10138000882321F08E3211F08501F6CF0C191D094A
:101390001016110684F40EAB41E050E0BE016A5C09
:1013A0007F4FCE0109960E946E06A801B601CE01BC
:1013B00009960E946E066501DACF1EAA41E050E050
:1013C000BE016A5C7F4FCE0109960E946E0600E066
:1013D00011E01DA30CA342E050E0BE016C5D7F4F05
:1013E000CE0109960E946E061DA30CA342E050E0B8
:1013F000BE016C5D7F4FCE0109960E946E06CE0144
:1014000009960E943A07892B09F460CF83E0E82E01
:10141000F12C8FB7F894A0905C03B0905D03C0905E
:101420005E03D0905F038FBFCE0109960E94EF0547
:1014300018161906DCF02FB7F89480915C03909190
:101440005D03A0915E03B0915F032FBF8A199B09D2
:10145000AC09BD0989389341A105B105C8F462E31F
:1014600070E080E090E00E94A711DECF4B815C81AC
:101470006D817E81898D9A8DAB8DBC8D4817590702
:101480006A077B0741F48D8D9E8DC59721F406C0B8
:101490000FEF1FEF98C00EEF1FEF95C08AA19BA121
:1014A0000C970CF4EDC04CE050E0BE016C5D7F4F3A
:1014B000CE0109960E9406058EA19FA19827892733
:1014C00098279BAF8AAF4F8158852CA13DA1421729
:1014D000530709F0CCC097FFCAC08F709270892B58
:1014E00009F0C8C0AAA4BBA4BA24AB24BA24A1148E
:1014F000B10409F4C2C000E010E088A599A59827BE
:10150000892798270817190708F470C0C12CD12C17
:1015100041E050E0BE01645C7F4FCE0109960E941D
:1015200006054CAD842F807C09F081C0442339F03E
:1015300050E060E070E0CE0109960E9406058CAD97
:101540008111E6CF42E050E0BE01685C7F4FCE01E2
:1015500009960E94060542E050E0BE016A5C7F4F9A
:10156000CE0109960E94060544E050E060E070E07C
:10157000CE0109960E94060542E050E0BE01665C7D
:101580007F4FCE0109960E94060588AD99AD4AAD00
:101590005BAD8115914009F054C00EA91FA9102719
:1015A000012710270130110509F04BC041155440A7
:1015B00009F05AC044E050E0BE016E5C7F4FCE019E
:1015C00009960E940605F1E0EF1AF10829F00F3F95
:1015D000FFEF1F0709F41DCFCE0109960E94AA054F
:1015E0000130110509F41ACEC80152C041E050E0A3
:1015F000BE016A5C7F4FCE0109960E9406054EA986
:10160000442339F050E060E070E0CE0109960E947A
:1016100006058EA98111EACF44E050E060E070E059
:10162000CE0109960E9406050F5F1F4F66CF41E06D
:1016300050E060E070E0CE0109960E9406051CAE05
:101640007ECF54274527542760E070E0CE010996ED
:101650000E940605EFEFCE1ADE0AAC14BD0409F0B5
:1016600057CF06EF1FEFAFCF07EF1FEFACCF0CEF59
:101670001FEFA9CF0BEF1FEFA6CF0AEF1FEFA3CFEE
:101680000DEF1FEFA0CF80E090E002C08EEF9FEF44
:10169000EC960FB6F894DEBF0FBECDBFDF91CF91B1
:1016A0001F910F91FF90EF90DF90CF90BF90AF9080
:1016B0009F908F907F906F9008956115710579F0DC
:1016C000FB0101900020E9F73197AF01461B570B52
:1016D000DC01ED91FC910280F381E02D199480E012
:1016E00090E00895CF92DF92EF92FF920F931F93B5
:1016F000CF93DF936C017A018B01C0E0D0E0CE156F
:10170000DF0581F0D8016D918D01D601ED91FC913D
:101710000190F081E02DC6011995892B11F02196D9
:10172000EECF7E01C701DF91CF911F910F91FF9006
:10173000EF90DF90CF900895FC01538D448D252FBD
:1017400030E0842F90E0821B930B541710F0CF965B
:10175000089501970895FC01918D828D981761F08D
:10176000828DDF01A80FB11D5D968C91928D9F5FD8
:101770009F73928F90E008958FEF9FEF0895FC0183
:10178000918D828D981731F0828DE80FF11D858D36
:1017900090E008958FEF9FEF0895FC01918D228DC9
:1017A000892F90E0805C9F4F821B91098F7399274E
:1017B000089588EC93E00E94CD0B21E0892B09F479
:1017C00020E0822F0895FC01848DDF01A80FB11D58
:1017D000A35ABF4F2C91848D90E001968F73992767
:1017E000848FA689B7892C93A089B1898C91837045
:1017F00080648C93938D848D981306C00288F3893E
:10180000E02D80818F7D80830895EF92FF920F936A
:101810001F93CF93DF93EC0181E0888F9B8D8C8D9C
:10182000981305C0E889F989808185FD26C0F62EC8
:101830000B8D10E00F5F1F4F0F731127E02E8C8D63
:10184000E8120CC00FB607FCFACFE889F98980814D
:1018500085FFF5CFCE010E94E30BF1CF8B8DFE010A
:10186000E80FF11DE35AFF4FF0829FB7F8940B8FFA
:10187000EA89FB89808180620AC09FB7F894EE896B
:10188000FF896083E889F98980818370806480831F
:101890009FBF81E090E0DF91CF911F910F91FF906A
:1018A000EF900895CF93DF93EC01888D8823C9F0E2
:1018B000EA89FB89808185FD05C0A889B9898C9159
:1018C00086FD0FC00FB607FCF5CF808185FFF2CFF4
:1018D000A889B9898C9185FFEDCFCE010E94E30BD9
:1018E000E7CFDF91CF91089580E090E0892B21F040
:1018F0000E94D90B811125C080E090E0892B41F036
:1019000080E090E0892B21F00E94000081111CC032
:1019100080E090E0892B41F080E090E0892B21F07D
:101920000E940000811113C080E090E0892BA1F09B
:1019300080E090E0892B81F00E94000081110AC0B4
:1019400008950E940000D8CF0E940000E1CF0E94BD
:101950000000EACF0C94000008950E941D148F929D
:101960009F92AF92BF92CF92DF92EF92FF920F932E
:101970001F93CF93DF937C01EB016C0182E0C80ED3
:10198000D11C4701E5E08E0E911C00E010E0F6014D
:1019900041916F0150E060E070E02AE0CE010E94CA
:1019A00022115C01E881F9810190F081E02D6EE265
:1019B000CE0119958A0D9B1D080F191F8C149D04CB
:1019C00031F7F701458150E060E070E02AE0CE0198
:1019D0000E942211800F911FDF91CF911F910F91D3
:1019E000FF90EF90DF90CF90BF90AF909F908F903F
:1019F00008953FB7F89480917A0390917B03A0916A
:101A00007C03B0917D0326B5A89B05C02F3F19F03C
:101A10000196A11DB11D3FBFBA2FA92F982F88276E
:101A2000820F911DA11DB11DBC01CD0142E0660FC9
:101A3000771F881F991F4A95D1F708951F920F921B
:101A40000FB60F9211242F933F938F939F93AF93D1
:101A5000BF9380915C0390915D03A0915E03B09170
:101A60005F033091790323E0230F2D3720F4019693
:101A7000A11DB11D05C026E8230F0296A11DB11DB1
:101A80002093790380935C0390935D03A0935E039E
:101A9000B0935F0380917A0390917B03A0917C03C4
:101AA000B0917D030196A11DB11D80937A0390939F
:101AB0007B03A0937C03B0937D03BF91AF919F9173
:101AC0008F913F912F910F900FBE0F901F901895FF
:101AD0001F920F920FB60F9211240BB60F922F93F5
:101AE0003F934F935F936F937F938F939F93AF93A6
:101AF000BF93EF93FF9388EC93E00E94E30BFF9179
:101B0000EF91BF91AF919F918F917F916F915F9175
:101B10004F913F912F910F900BBE0F900FBE0F90E2
:101B20001F9018951F920F920FB60F9211240BB6AB
:101B30000F922F938F939F93EF93FF93E091D8038E
:101B4000F091D9038081E091DE03F091DF0382FD03
:101B500012C090818091E1038F5F8F732091E20327
:101B6000821751F0E091E103F0E0E853FC4F958FCC
:101B70008093E10301C08081FF91EF919F918F914C
:101B80002F910F900BBE0F900FBE0F901F901895C6
:101B90001F93CF93DF9300D0CDB7DEB760E372E041
:101BA00080E090E00E94A7111FB7F8948091600335
:101BB000811196C067E772E0FB0184912DEB32E062
:101BC000F9019491E82FF0E0EE0FFF1FE85DFD4F63
:101BD000A591B4918C91892309F070C0EDEFF1E0EB
:101BE0004491F9012491FB019491992309F466C071
:101BF000442309F455C050E0FA013197E231F10570
:101C000008F04EC08827EE58FF4F8F4F0C941514E4
:101C1000809180008F7707C0809180008F7D03C006
:101C200080918000877F809380003AC084B58F7751
:101C300002C084B58F7D84BD33C08091B0008F77A2
:101C400003C08091B0008F7D8093B00029C0809147
:101C500090008F7707C0809190008F7D03C08091A6
:101C60009000877F809390001BC08091A0008F77A9
:101C700007C08091A0008F7D03C08091A000877F66
:101C80008093A0000DC0809120018F7707C08091C4
:101C900020018F7D03C080912001877F80932001E8
:101CA000E92FF0E0EE0FFF1FE25FFD4FA591B49129
:101CB0009FB7F8948C91282B2C939FBF61E085E30C
:101CC0000E946B118CB580618CBD8CB580648CBD1D
:101CD00061E084E30E946B1161E083E30E946B1179
:101CE000809160038F5F809360031FBFECE4F2E09C
:101CF000E491F0E0EE0FFF1FE25FFD4F85919491BC
:101D000090935A0380935903E2E9F2E0E491E0935F
:101D1000580361E08AE00E946B110E94FB01CE0132
:101D200001960E94640F89819A810E942D0484E3A8
:101D30008093C6030E9404048823D9F088E00E949F
:101D40004F030E9400048830A1F480E10E944F03F9
:101D50000E940004803169F480E00E944F030E94D9
:101D60000004811106C08FE190E00E94EF038330F0
:101D700059F187E38093C6030E9404048823C1F1CC
:101D800088E00E944F030E940004883089F580E1BA
:101D90000E944F030E940004182F803149F580E013
:101DA0000E944F030E940004811122C089E390E049
:101DB0000E94EF038430E1F410935B030E942C0433
:101DC00081E08093C7034FC080E480935B0310E001
:101DD00042E06EE170E0812F0E94D10342E06FE1AA
:101DE00070E0812F0E94D1031F5F183089F7E6CF82
:101DF00083E38093C6030E940404882339F080E1C2
:101E00000E944F030E940004803131F01092C603FB
:101E10000E942C0480E027C082E10E944F030E94B0
:101E20000004823199F780E00E944F030E94000471
:101E30008111ECCF84E080935B0315E51B8341E0C7
:101E400050E0BE016D5F7F4F8BE190E00E949202F7
:101E5000198341E050E0BE016F5F7F4F8AE190E05F
:101E60000E949202ABCF0F900F900F90DF91CF9115
:101E70001F910895FC0120812EBD9B012150310945
:101E800041F051810DB407FEFDCF4EB55EBD4193CB
:101E9000F5CF61507109FC01E60FF71F0DB407FE85
:101EA000FDCF8EB580830895CF93C82F462F61E074
:101EB00070E00E94D10361E070E08C2F0E941D044D
:101EC0008111F9CFCF91089520E5FC01208321E015
:101ED00021830895CF93DF93BC0188EC93E00E94A7
:101EE0005D0BEC0164E573E088EC93E00E945D0B10
:101EF0008C0F9D1FDF91CF910895CF92DF92EF92CB
:101F0000FF92CF93DF93CDB7DEB7C454D1090FB69C
:101F1000F894DEBF0FBECDBFFC01428153816481C6
:101F2000758123964CAF5DAF6EAF7FAF239781E095
:101F300023968FAF23972396CCACDDACEEACFFACF1
:101F40002397CBAADCAAEDAAFEAA4DA75EA76FA78E
:101F500078AB88ABCDA4DEA4EFA4F8A8CFA2D8A616
:101F6000E9A6FAA68EABCBA8DCA8EDA8FEA8C9A26C
:101F7000DAA2EBA2FCA229E932E03C8B2B8B9FEF8B
:101F80009D8B9E8B9F8B188E3E872D878AA7CFA017
:101F9000D8A4E9A4FAA4CF86D88AE98AFA8A8CA3BD
:101FA00089A19AA1ABA1BCA189879A87AB87BC877D
:101FB0003A8329834B835C836D837E838091C7033F
:101FC000882309F43FC0CE018D5B9F4F0E94640FB0
:101FD00025968EAD9FAD25970E942D0446E050E0DA
:101FE00062E072E089E090E00E94920244E050E0FA
:101FF000BE016D5F7F4F8FE090E00E94920244E04F
:1020000050E0BE01615F7F4F81E090E00E9492024C
:1020100044E050E0BE016B5E7F4F85E090E00E949F
:1020200092020E942C0481E08C8789859A85AB8579
:10203000BC8580936D0490936E04A0936F04B0935D
:10204000700404C00E94C80D8111BDCFCC5BDF4F6E
:102050000FB6F894DEBF0FBECDBFDF91CF91FF90DA
:10206000EF90DF90CF9008958F929F92AF92BF92A2
:10207000CF92DF92EF92FF920F931F93CF93DF9354
:10208000CDB7DEB760970FB6F894DEBF0FBECDBFF9
:102090007C019091C603992309F4C0C0933311F0D9
:1020A00008E001C004E06B01CE0101960E94640FBC
:1020B00089819A810E942D049E012F5F3F4F590113
:1020C000490110E063E070E0812F0E941D04F401DB
:1020D00081934F018823C9F01F5F0113F3CF10E0F4
:1020E000F50181915F018D3159F0883149F08A51B4
:1020F000823030F01F5F0113F3CF0E942C048EC09A
:1021000060E170E0812F0E94540FA12EB12C83EE6C
:1021100093E00197F1F742E860E070E0812F0E94C0
:10212000D1034FEF62E070E0812F0E94D103C11410
:10213000D10411F0B60113C0809100029091010208
:1021400001968115F0EC9F0710F480E090EC9093DD
:102150000102809300026091000270910102812FC0
:102160000E94740386E0EDE0F2E0DE011996019032
:102170000D928A95E1F7F70183818F778C878481AF
:102180008D8785818E87A7014E5F5F4F24E030E009
:102190006CE070E0812F0E946203DF86C88A22E033
:1021A00030E0AE01415F5F4F60E170E0812F0E943F
:1021B000620326E030E0AE01475F5F4F66E070E00B
:1021C000812F0E94620361E070E0812F0E94540F12
:1021D00027E02A9DC0012B9D900D11249C012258BF
:1021E0003C4F7901F9011182108222E030E0AE010A
:1021F000415F5F4F68E270E0812F0E948A038F8504
:102200009889982789279827F701938382831682D4
:10221000158214820E942C04812F01C088E06096F0
:102220000FB6F894DEBF0FBECDBFDF91CF911F91E7
:102230000F91FF90EF90DF90CF90BF90AF909F9065
:102240008F9008958F929F92AF92BF92EF92FF92DC
:102250000F931F93CF93DF93CDB7DEB7A1970FB640
:10226000F894DEBF0FBECDBF7C01FA01CB0119A2ED
:10227000223008F42AE08E010F5D1F4F822E912C30
:10228000A12CB12CBF01A50194010E94F313F90107
:10229000CA01015011096A3014F4605D01C0695C23
:1022A000D8016C93232B242B252B61F7B801C70190
:1022B0000E945D0BA1960FB6F894DEBF0FBECDBF96
:1022C000DF91CF911F910F91FF90EF90BF90AF9052
:1022D0009F908F900895CF93DF9390E0FC01E85793
:1022E000FD4F2491FC01EE5BFD4F8491882361F149
:1022F00090E0880F991FFC01E85DFD4FC591D491D6
:10230000FC01E25FFD4FA591B491611109C09FB737
:10231000F8948881209582238883EC912E230BC02A
:10232000623061F49FB7F8948881322F309583230F
:102330008883EC912E2B2C939FBF06C08FB7F89407
:10234000E8812E2B28838FBFDF91CF9108958F9244
:102350009F92AF92BF92CF92DF92EF92FF926B016A
:102360007C010E94F90C4B015C01C114D104E10411
:10237000F104F1F00E94F90CDC01CB0188199909F4
:10238000AA09BB09883E9340A105B10570F321E07D
:10239000C21AD108E108F10888EE880E83E0981E81
:1023A000A11CB11CC114D104E104F10419F7DDCF63
:1023B000FF90EF90DF90CF90BF90AF909F908F9065
:1023C0000895CF93DF93CDB7DEB72C970FB6F8946F
:1023D000DEBF0FBECDBF789484B5826084BD84B566
:1023E000816084BD85B5826085BD85B5816085BD10
:1023F00080916E00816080936E00109281008091C8
:10240000810082608093810080918100816080934F
:102410008100809180008160809380008091B10074
:1024200084608093B1008091B00081608093B0009F
:1024300080919100826080939100809191008160F1
:1024400080939100809190008160809390008091B2
:10245000A10082608093A1008091A100816080939F
:10246000A1008091A00081608093A0008091210153
:1024700082608093210180912101816080932101FC
:102480008091200181608093200180917A00846096
:1024900080937A0080917A00826080937A008091A4
:1024A0007A00816080937A0080917A0080688093BE
:1024B0007A001092C100E091D803F091D90382E034
:1024C0008083E091D403F091D5031082E091D6038C
:1024D000F091D7038FEC80831092E003E091DC034E
:1024E000F091DD0386E08083E091DA03F091DB0375
:1024F000808180618083E091DA03F091DB03808149
:1025000088608083E091DA03F091DB03808180684A
:102510008083E091DA03F091DB0380818F7D8083FB
:1025200081EA92E00E946A0F62E081E30E946B11EF
:1025300061E080E30E946B1189E992E09A838983CC
:1025400080918E0490918F04A0919004B091910499
:102550008B839C83AD83BE83CE0101960E947D0F49
:10256000E091C603E353E53030F4F0E0E85FFD4F5F
:10257000808181110BC088EB92E00E946A0F61E0BC
:1025800070E080E090E00E94A711F9CF8091C7032E
:10259000882339F08091C603843341F08733C1F03A
:1025A00028C00E94C80D882321F1F4CFCE010196E6
:1025B0000E94640F89819A810E942D0485E390E036
:1025C0000E94EF03182F0E942C0415FF60C011C059
:1025D000CE0101960E94640F89819A810E942D0488
:1025E0008EE290E00E94EF03182F0E942C0410FF4F
:1025F0004EC068EB72E281E794E00E94CD0709E9E2
:1026000012E081E794E00E94EF05892BE9F18091C7
:10261000810490918204A0918304B09184048987FD
:102620009A87AB87BC8748E150E061E673E081E7B9
:1026300094E00E94EE011A83098389859A85AB850F
:10264000BC858B839C83AD83BE8348EB52E2BE0185
:102650006F5F7F4F81E794E00E947D076EEF72E02D
:1026600081E794E00E945D0B61E070E080E090E023
:102670000E94A71181E794E00E943A07892B21F478
:1026800087E293E00E946A0F0E94740CBACF83E342
:1026900093E00E946A0FADCFE8ECF3E01382128260
:1026A00048EE53E060E070E04483558366837783AF
:1026B00087E192E09183808385EC90E09587848721
:1026C00084EC90E09787868780EC90E0918B808BFC
:1026D00081EC90E0938B828B82EC90E0958B848BE5
:1026E00086EC90E0978B868B118E128E138E148E53
:1026F000E2E9F4E089E992E0918380831282138217
:1027000014821582E8E9F4E09183808312821382B7
:1027100014821582E5E6F4E09183808312821382AD
:1027200014821582EEE9F4E0918380831282138291
:1027300014821582E4EAF4E091838083128213828A
:1027400014821582EAEAF4E0918380831282138274
:1027500014821582E0EBF4E091838083128213826D
:1027600014821582E6EBF4E0918380831282138257
:1027700014821582EBE6F4E0918380831282138247
:1027800014821582E2ECF4E091838083128213823A
:1027900014821582ECE8F4E09183808330EC32837C
:1027A00028EA23831482A8E5A583ECEBF4E0918367
:1027B00080833283238314822AE52583E1E7F4E0D2
:1027C0001382128244835583668377832FE632E037
:1027D0003183208397878687108A118A128A138A09
:1027E00088E0808F0895A1E21A2EAA1BBB1BFD0171
:1027F0000DC0AA1FBB1FEE1FFF1FA217B307E407E0
:10280000F50720F0A21BB30BE40BF50B661F771F37
:10281000881F991F1A9469F7609570958095909517
:102820009B01AC01BD01CF010895EE0FFF1F881F72
:102830008BBF0790F691E02D199481E090E0F89419
:102840000C942914DC0101C06D9341505040E0F715
:062850000895F894FFCF8B
:1028560000C0AEADBEEFFEED010200000301005E5A
:1028660000000000000000050C720B9C0B520CCD02
:102876000BAB0BBF0B00000000AD0C720BF801F7A1
:1028860001AD0CAD0CAD0C00000000AD0C720BF8E8
:1028960001F70100000000AD0CAD0CF801AD0CAD68
:1028A6000CAD0CAD0CAD0CF501AD0CAD0CAD0CAD1D
:1028B6000CAD0CAD0CAD0CAD0CAD0C00000000BCAD
:1028C600016E06F801BB01D2012505B805CD0769E1
:1028D60005AA057D0795083A07EF050605EE01DE10
:1028E60001DA01D60100000000AF0C00000000ADC7
:1028F6000C5544502053657276657220737461726C
:1029060074696E672E2E2E0045746865726E657446
:1029160020736869656C6420776173206E6F74201C
:10292600666F756E642E2020536F7272792C206349
:10293600616E27742072756E20776974686F75747E
:102946002068617264776172652E203A2800313200
:102956003334353637383930313233343536373823
:102966003930313233343536373839303132333421
:102976003536373839300073656E64206572726F8C
:1029860072210045746865726E6574206361626CBD
:1029960065206973206E6F7420636F6E6E65637455
:0829A60065642E000D0A00001B
:00000001FF
